:020000040040BA
:10000000282740208526400035274000352740001E
:10001000352740003527400035274000000000000C
:100020000000000000000000000000003527400034
:1000300035274000000000003527400035274000EC
:10004000352740003527400035274000DD2A400095
:100050003527400035274000352740003527400030
:1000600035274000000000003D224000552240009E
:100070006D224000352740003527400035274000DD
:10008000852240009D224000352740003527400052
:1000900035274000352740003527400035274000F0
:1000A00035274000352740003527400035274000E0
:1000B00035274000352740003527400035274000D0
:1000C00035274000352740003527400035274000C0
:1000D00000000000352740000000000035274000E8
:1000E00035274000352740003527400035274000A0
:1000F0003527400035274000352740003527400090
:10010000352740003527400035274000352740007F
:100110003527400000000000000000000000000043
:10012000352740003527400035274000352740005F
:1001300035274000000000003527400035274000EB
:1001400010B5054C237833B9044B13B10448AFF311
:1001500000800123237010BD5C04402000000000DB
:100160009C4140000C4B43B10C480D4910B5AFF316
:1001700000800C48036823B910BD0A48036833B9EE
:100180007047094B002BF7D0BDE810401847064BCD
:10019000002BF5D0184700BF000000009C41400034
:1001A000600440209C4140000000000080B483B007
:1001B00000AF78600B467B807A88074B1B6813433F
:1001C00043F480227B681A60002318460C37BD4632
:1001D0005DF8047B704700BF7804402080B483B092
:1001E00000AF78600B46FB70FB78002B0DD0104BF6
:1001F0001B6843F080730E4A13607B681A680C4BCF
:100200001B681A437B681A600CE0094B1B6823F0DB
:100210008073074A13607B681A68054B1B681A4392
:100220007B681A6000BF0C37BD465DF8047B7047E1
:100230007804402080B485B000AF786039607B6876
:100240001B68FB60FA683B681343FB60064B1B6846
:10025000FA681343FB607B68FA681A6000BF1437C2
:10026000BD465DF8047B70477804402080B485B0BB
:1002700000AF786039600023FB607B681B68FB601F
:100280003B68DB43FA681340FB60074B1B68FA6866
:100290001343FB607B68FA681A6000BF1437BD46E1
:1002A0005DF8047B704700BF7804402080B485B0BF
:1002B00000AF78607B689B68FB6002E07B689B68AE
:1002C000FB607B689A68FB689A42F7D1FB68184626
:1002D0001437BD465DF8047B704780B483B000AF2F
:1002E00078607B68DB6818460C37BD465DF8047B98
:1002F0007047000080B584B000AF786039607B68DB
:100300001B6803F48033FB604FF480310D480E4BC3
:1003100098473B68002B04D17B684FF0FF325A604E
:1003200003E03B685A1E7B685A60FB68002B04D0D0
:100330004FF480310348054B984700231846103787
:10034000BD4680BD30180E406D02400035024000B1
:1003500080B483B000AF78607B685B6803F0020311
:10036000002B01D0012300E0002318460C37BD46C6
:100370005DF8047B7047000080B582B000AF786004
:100380007868034B984700BF0837BD4680BD00BF63
:100390007925400080B582B000AF78607B68094A5B
:1003A000934203D11520084B984706E07B68074A23
:1003B000934202D12A20044B984700BF0837BD461C
:1003C00080BD00BF008000407903400000800540F0
:1003D00080B483B000AF786039607B685B6823F4D9
:1003E00070227B685A607B685A683B681B0403F480
:1003F00070231A437B685A6000BF0C37BD465DF816
:10040000047B704780B584B000AF78600846114621
:100410001A4603467B800B467B7013463B7043F6BF
:100420009823FB6006E0FB685A1EFA60002B01D19E
:10043000012320E07B681B6903F00203002BF2D04C
:1004400078680F4B98470346002B0ED07A887B784C
:100450001B0403F470231343BB603B78002B06D0CE
:10046000BB6843F08073BB6001E07B88BB607B6846
:10047000BA68DA60002318461037BD4680BD00BF59
:100480005103400080B485B000AFF860B9607A6075
:100490007B68002B0CD0FB68BA680C3253F8223012
:1004A00043F00101FB68BA680C3243F822100BE0FC
:1004B000FB68BA680C3253F8223023F00101FB6864
:1004C000BA680C3243F8221000BF1437BD465DF8FD
:1004D000047B704780B485B000AFF860B9607A6083
:1004E0007B68002B0CD0FB68BA680C3253F82230C2
:1004F00043F00201FB68BA680C3243F822100BE0AB
:10050000FB68BA680C3253F8223023F00201FB6812
:10051000BA680C3243F8221000BF1437BD465DF8AC
:10052000047B704780B485B000AFF860B9607A6032
:100530007B68042B18D1FB68BA680C3253F8223060
:1005400023F00801FB68BA680C3243F82210FB68FC
:10055000BA680C3253F8223043F00401FB68BA68E1
:100560000C3243F822102AE07B68002B18D1FB687C
:10057000BA680C3253F8223023F00801FB68BA68DD
:100580000C3243F82210FB68BA680C3253F8223060
:1005900023F00401FB68BA680C3243F822100EE025
:1005A0007B68082B0BD1FB68BA680C3253F82230F9
:1005B00043F00801FB68BA680C3243F8221000BF10
:1005C0001437BD465DF8047B704780B485B000AF3A
:1005D000F860B9607A60FB68BA680C3253F8223070
:1005E00023F0F001FB68BA680C3243F82210FB6874
:1005F000BA680C3253F822207B6842EA0301FB6898
:10060000BA680C3243F8221000BF1437BD465DF8BB
:10061000047B704780B485B000AF786039603A6879
:100620007B6813445A1E7B68B2FBF3F3FB60FB68E4
:10063000002B02DDFB68FF2B02DD4FF0FF3301E0F2
:10064000FB681BB218461437BD465DF8047B704743
:1006500080B485B000AFF860B9601346FB71FB79D8
:10066000002B02D14FF0FF331BE0FB68BA680C325D
:1006700053F8223023F47F41FB68BA680C3243F808
:100680002210FB68BA680C3253F82220FB791B0257
:100690009BB242EA0301FB68BA680C3243F82210AD
:1006A000002318461437BD465DF8047B70470000F0
:1006B00080B483B000AF7860044A7B68136000BFE9
:1006C0000C37BD465DF8047B704700BF7C044020BA
:1006D00080B483B000AF0346FB710B46BB71134679
:1006E0007B71084B1A68FB79DB011946BB790B4417
:1006F00013447A791A7000BF0C37BD465DF8047B4D
:10070000704700BF7C04402080B483B000AF034634
:100710000A46FB711346BB71074B1A68FB79DB0174
:100720001946BB790B4413441B7818460C37BD4659
:100730005DF8047B704700BF7C04402090B585B015
:1007400000AF0446084611461A462346FB7103468D
:10075000BB710B467B7113463B71FA797B7913446D
:10076000802B06DDFB79C3F1FF2303F57F03803384
:100770007B71BB79DB08FB73BA79FB7BDB00D31A97
:10078000012202FA03F3BB737B79002B66D03B791D
:10079000012B1CD0022B5BD0002B3BD05FE0FA7901
:1007A0007B791344DAB2FB7B114618462D4B9847F0
:1007B00003467B737A7BBB7B13437B73FA797B792C
:1007C0001344D9B27A7BF87B0023274CA0477B796E
:1007D0005A1E7A71002BE2D141E0FA797B791344F9
:1007E000DAB2FB7B114618461E4B984703467B73D3
:1007F00097F90E30DB435AB297F90D3013405BB2D4
:100800007B73FA797B791344D9B27A7BF87B002326
:10081000154CA0477B795A1E7A71002BDDD11EE062
:10082000FA797B791344DAB2FB7B114618460D4BFB
:10083000984703467B737A7BBB7B53407B73FA7983
:100840007B791344D9B27A7BF87B0023064CA0470E
:100850007B795A1E7A71002BE2D100E000BF143779
:10086000BD4690BD790C4000F50B400090B583B0BB
:1008700000AF0446084611461A462346FB7103465C
:10088000BB710B467B7113463B713B79002B0FD03C
:1008900008E0BA793B791344D9B23B7E7A79F8798A
:1008A000054CA0473B795A1E3A71002BF1D100E06C
:1008B00000BF0C37BD4690BD3D07400080B586B0F7
:1008C00000AF3B600346FB710B46BB7113467B7167
:1008D000BB793B747B79FB733B681B7ADB08FB7449
:1008E0003B681B7A03F00703DBB2002B02D0FB7CD2
:1008F0000133FB74FB7C9AB23B685B7A9BB212FBC0
:1009000003F39AB2FB793968897A5B1A9BB212FBBE
:1009100003F3BB813B685A68BB8913447B613B6826
:100920005B7ABB740023BB733B681B7AFB720023AA
:100930007B741EE07B7C03F00703DBB2002B05D148
:100940007B691B78BB737B6901337B6197F90E3040
:10095000002B05DAF97B3B7C012218460E4B9847A9
:100960003B7C01333B74BB7B5B00BB737B7C013303
:100970007B747A7CFB7A9A42DCD3FB7B0133FB737A
:10098000BB793B74BB7C013BBB74BB7C002BC9D1E6
:1009900000BF1837BD4680BD590B400090B585B0EB
:1009A00002AF3B600346FB710B46BB7113467B7184
:1009B0003B681A7A3B685C7A7979B87900230093AE
:1009C0002346094CA0473B681B78002B00D006E06B
:1009D0007A79B979F8793B68044CA04700BF00BF29
:1009E0000C37BD4690BD00BF6D084000BD084000FB
:1009F00090B587B000AFF8607B600B46FB72134682
:100A0000BB72FB7AFB75FB681B780A2B09D1FB7D57
:100A1000FB727B685A7ABB7A1344DBB20133BB7238
:100A20000FE0FB681B780D2B0BD0FB681878BA7AA7
:100A3000F97A7B68084CA0477B681A7AFB7A1344E2
:100A4000FB72FB680133FB60FB681B78002BDAD17B
:100A500000BF1C37BD4690BD9D09400080B582B0E7
:100A600000AF0346FB71FB7903F00F03FB71FB79C9
:100A700063F04F03DBB21846024B984700BF0837BC
:100A8000BD4680BD6113400080B582B000AF034613
:100A9000FB71FB7903F07F03FB71FB791B09DBB270
:100AA00043F01003DBB21846064B9847FB7903F07E
:100AB0000F03DBB21846034B984700BF0837BD460B
:100AC00080BD00BF6113400080B582B000AF034617
:100AD000FB71FB7903F03F03FB71FB7943F04003AB
:100AE000DBB21846024B984700BF0837BD4680BDB1
:100AF0006113400090B583B000AF1248124B984785
:100B0000124B98470020124B98470023FB7112E0CC
:100B10000023BB7108E0B979F879012300220D4C5C
:100B2000A047BB790133BB7197F90630002BF2DA8D
:100B3000FB790133FB71FB79032BE9D900BF0C373B
:100B4000BD4690BD80044020B1064000B112400077
:100B5000C90A4000F50B400090B585B000AF0346D0
:100B6000FB710B46BB7113467B7197F90730002B65
:100B700038DBBB791F2B35D8BB79DB08BB73BA795F
:100B8000BB7BDB00D31A012202FA03F37B73FA79F1
:100B9000BB7B11461846154B98470346FB737B7980
:100BA000012B04D0022B11D0002B05D013E0FA7BCF
:100BB0007B7B1343FB730EE097F90D30DB435AB296
:100BC00097F90F3013405BB2FB7304E0FA7B7B7B39
:100BD0005340FB7300BFFA7BF979B87B0023044CC8
:100BE000A04700E000BF1437BD4690BD790C40001F
:100BF000F50B400090B583B000AF0446084611469F
:100C00001A462346FB710346BB710B467B711346A4
:100C10003B713B7983F00103DBB2002B0AD0BA7938
:100C2000FB79114618460F4B984703461A467B79C5
:100C3000934212D07A79B979FB7918460A4B9847D2
:100C4000FB791846094B9847BB791846084B9847DB
:100C50007B791846074B984700E000BF0C37BD462C
:100C600090BD00BF09074000D10640005D0A40006A
:100C7000890A40000514400080B582B000AF0346E9
:100C80000A46FB711346BB71BA79FB7911461846C7
:100C9000034B9847034618460837BD4680BD00BF42
:100CA0000907400080B483B000AF78607B68072BF1
:100CB00025D801A252F823F0D90C4000DF0C4000E7
:100CC000E50C4000EB0C4000EF0C4000F30C400042
:100CD000F70C4000FB0C40004FF4FA4310E04FF4D7
:100CE00000430DE04FF400430AE0084B08E0084BD6
:100CF00006E0084B04E0074B02E0064B00E000234F
:100D000018460C37BD465DF8047B704700093D006E
:100D100000127A00001BB70080B500AF0620054B1B
:100D20009847024613469B0013449A001344184602
:100D300080BD00BFA50C400080B500AF024B9847B6
:100D40000346184680BD00BF190D400080B500AFB6
:100D5000024B984703465B08184680BD190D4000BA
:100D600080B489B000AF78607B68FB61FB69BB61D0
:100D7000BB695A09FB697B617B6903F01F03012191
:100D800001FA03F33A61FB603B69BB60BA68064B4A
:100D900013445B021A46FB68136000BF2437BD464C
:100DA0005DF8047B704700BF0707200080B48DB05A
:100DB00000AF786039607B68FB623B68BB62FB6AAE
:100DC0007B627B6A5A09FB6A3B623B6A03F01F0342
:100DD000012101FA03F3FA61BB61BB6A7B61FB6924
:100DE0003B613A69374B13445B02FB607B6903F05C
:100DF0000803002B03D0FB68BA695A6602E0FB685F
:100E0000BA691A667B6903F01003002B04D0FB68F3
:100E1000BA69C3F8942003E0FB68BA69C3F890206C
:100E20007B6903F02003002B03D0FB68BA691A65C5
:100E300002E0FB68BA695A657B6903F0C003002BC6
:100E400003D0FB68BA691A6202E0FB68BA695A62A9
:100E50007B6903F08003002B04D0FB68BA69C3F8F8
:100E6000842003E0FB68BA69C3F880207B6903F043
:100E70000103002B06D0FB681A6FBB691A43FB689D
:100E80001A6706E0FB681A6FBB69DB431A40FB6810
:100E90001A677B6903F00203002B06D0FB685A6FC8
:100EA000BB691A43FB685A6706E0FB685A6FBB6967
:100EB000DB431A40FB685A6700BF3437BD465DF814
:100EC000047B70470707200080B48DB000AF7860C6
:100ED0000B46FB707B68FB62FB7887F82B30FB6A64
:100EE0007B627B6A3B623B6A5B09FB61FA69174B79
:100EF00013445B02BB6197F82B30012B09D1FB6ACD
:100F00007B617B6903F01F0301229A40BB691A6170
:100F10000CE097F82B30002B08D1FB6A3B613B6952
:100F200003F01F0301229A40BB695A61FB6AFB6010
:100F3000FB6803F01F0301229A40BB69C3F8A0209D
:100F400000BF3437BD465DF8047B704707072000BB
:100F500080B48BB000AF78600B46FB707B687B621F
:100F6000FB7887F823307B6AFB61FB69BB61BB6957
:100F70005B097B617A69104B13445B023B6197F814
:100F80002330002B09D07B6AFB60FB6803F01F0352
:100F900001229A403B691A6308E07B6ABB60BB6828
:100FA00003F01F0301229A403B695A6300BF2C37AC
:100FB000BD465DF8047B70470707200080B483B00E
:100FC00000AF78607B6880221A6000BF0C37BD4696
:100FD0005DF8047B704780B483B000AF78607B68B5
:100FE00001221A6000BF0C37BD465DF8047B7047D4
:100FF00080B483B000AF78607B6802221A6000BFC3
:101000000C37BD465DF8047B704780B483B000AFF9
:1010100078607B685B6843F001027B685A6000BFC0
:101020000C37BD465DF8047B704780B483B000AFD9
:1010300078607B685B6823F002027B685A6000BFBF
:101040000C37BD465DF8047B704780B483B000AFB9
:1010500078607B685B6843F010027B685A6000BF71
:101060000C37BD465DF8047B704780B483B000AF99
:1010700078607B685B6823F080027B685A6000BF01
:101080000C37BD465DF8047B7047000080B582B028
:1010900000AF0F4B984702460E4BA3FB02239A0C5E
:1010A00013469B0013445B007B60002151200A4BD8
:1010B00098477868094B984701215120064B98477B
:1010C0007868064B984700BF0837BD4680BD00BF13
:1010D000390D400083DE1B43510F400001004020CA
:1010E00080B500AFAF20024B984700BF80BD00BF66
:1010F0006113400080B582B000AF0346FB718120D0
:10110000054B9847FB791846034B9847FB791846DF
:101110000837BD4680BD00BF6113400080B500AFF9
:10112000A620024B984700BF80BD00BF611340005E
:1011300090B583B000AF01215120464B9847012163
:101140002320444B984708215120434B98470821BE
:101150002320414B98472320404B984751203F4B39
:101160009847012123203E4B9847012151203C4BB9
:10117000984700234FF480024FF0805139483A4C91
:10118000A04700234FF400124FF080513548364CF1
:10119000A04700234FF000724FF080513148324C8D
:1011A000A04700234FF480024FF080512D482E4C71
:1011B000A04700234FF400124FF0805129482A4CD9
:1011C000A04700234FF000724FF080512548264C75
:1011D000A0472648264B98472448264B9847234843
:1011E000254B9847082201212048244B984700228C
:1011F00001211E48224B9847002201211B48214B08
:1012000098471A48204B98470022012117481F4B46
:10121000984716481E4B984714481E4B98471E4B3C
:101220009847034619461D481D4B984703467B6067
:101230007B68DBB21A4601210C481A4B98470B48D1
:10124000194B98470948194B984700BF0C37BD46C2
:1012500090BD00BFC90E4000AD0D4000610D4000C3
:10126000510F400000140E40491F40000080004014
:10127000F10F4000BD0F40000B104000250540005D
:1012800085044000D50440002B104000CB054000F1
:101290006B1040004B1040004D0D400040420F00CD
:1012A000150640005106400095034000D70F40004E
:1012B00080B500AF234B9847234B9847012151201D
:1012C000224B9847A820224B98471F20204B984735
:1012D000D3201F4B984700201D4B984740201C4BA4
:1012E0009847A1201A4B9847C820194B9847DA20F5
:1012F000174B98470220164B98478F20154B98475D
:10130000A420134B9847144B9847D520104B98476F
:1013100080200F4B98478D200D4B984714200C4B85
:101320009847DB200A4B98474020094B9847D92023
:10133000074B9847F120064B9847084B984700BF4A
:1013400080BD00BF311140008D104000510F4000A2
:1013500061134000F51040001D114000E1104000F5
:10136000F0B583B000AF0346FB71002123201C4B76
:10137000984701211B481C4B9847FB7999B20123E0
:1013800001221848194CA047194B984703461946A3
:101390004FF000020B461446A60046EA93769D00E5
:1013A0002B4634465B1844EB0204DB1844EB040480
:1013B000194622460F4B4FF00004CD1842EB0406AD
:1013C000284631460C4C0D4A4FF00003A047034617
:1013D0000C4618460A4B984700BF0C37BD46F0BD77
:1013E000510F400000800040D10340000504400040
:1013F000390D4000DF835A00752F4000E0835A000A
:1014000001004020F0B583B000AF0346FB7101211D
:1014100023201C4B984701211B481C4B9847FB7904
:1014200099B2012301221848194CA047194B98473B
:10143000034619464FF000020B461446A60046EA42
:1014400093769D002B4634465B1844EB0204DB1870
:1014500044EB0404194622460F4B4FF00004CD180C
:1014600042EB0406284631460C4C0D4A4FF000036F
:10147000A04703460C4618460A4B984700BF0C3756
:10148000BD46F0BD510F400000800040D103400038
:1014900005044000390D4000DF835A00752F4000DD
:1014A000E0835A000100402080B582B000AF786030
:1014B0007B68072B31D801A252F823F019154000A0
:1014C000DD144000E5144000ED144000F514400028
:1014D000FD144000051540000F1540000020114B81
:1014E00098471AE001200F4B984716E000200E4B5A
:1014F000984712E010200C4B98470EE020200A4B32
:1015000098470AE03E210020084B984705E03E211D
:101510000120064B984700E000BF00BF0837BD46DA
:1015200080BD00BFB523400021244000912440002D
:1015300080B582B000AF78607B68072B26D801A207
:1015400052F823F065154000691540006915400008
:101550007B1540007B1540007B1540007B1540004B
:101560007B154000012312E00B4B98470346002BEC
:1015700014BF01230023DBB209E0084B9847034660
:10158000002B14BF01230023DBB200E00023184628
:101590000837BD4680BD00BFED234000092540004F
:1015A00080B483B000AF78607B68072B25D801A298
:1015B00052F823F0D5154000DB154000E11540003E
:1015C000E7154000EB154000EF154000F315400013
:1015D000F71540004FF4FA4310E04FF400430DE0DC
:1015E0004FF400430AE0084B08E0084B06E0084BC4
:1015F00004E0074B02E0064B00E0002318460C37DE
:10160000BD465DF8047B704700093D0000127A007A
:10161000001BB70080B582B000AF0346FB7100BF6E
:10162000FB791846054B9847034683F00103DBB26C
:10163000002BF5D100BF0837BD4680BD31154000F5
:1016400080B586B000AFF8607A603B600B46FB72F5
:101650007B68002B07D13B68002B04D1FB684FF45B
:1016600070021A6019E0FB7A18460E4B9847024642
:101670007B68B2FBF3F37B617B693A6802FB03F39F
:101680007B613B68013B1A04074B13407A68D2B276
:10169000134343F47C52FB681A6000BF1837BD4601
:1016A00080BD00BFA11540000000FF0780B582B0DB
:1016B00000AF786039603B68002B08D1094B984730
:1016C000094A7B681B6843F00053936205E0064AB1
:1016D0007B681B6843F48033D36100BF0837BD4685
:1016E00080BD00BF2525400000060E4080B582B0B9
:1016F00000AF78607B68002B03D1054B9847034609
:1017000002E0044B9847034618460837BD4680BDA3
:10171000412540005D25400080B582B000AF034602
:10172000FB71FB79033B042B08D8FB791846064B69
:101730009847FB791846054B984700E000BF00BF6B
:101740000837BD4680BD00BFA914400015164000F3
:1017500080B582B000AF786000BF7868044B9847CE
:101760000346002BF9D0002318460837BD4680BD3C
:10177000ED16400080B500AF0620054B98470246A5
:1017800013469B0013449A001344184680BD00BFC3
:10179000A115400080B500AF024B9847034618469C
:1017A00080BD00BF7517400090B583B000AF1348EF
:1017B000134B98470620134B9847381D19230122D5
:1017C0000621114CA0473B1D002118460F4B98479E
:1017D00000200F4B984702200E4B984700200E4BDD
:1017E00098470E4B98470E4B984703461846044BB4
:1017F000984700BF0C37BD4690BD00BF00A3E11164
:10180000A52840001917400041164000AD164000C1
:1018100051174000B5224000312340003D274000D1
:101820009517400080B400AFBFF34F8FBFF36F8FA9
:10183000094B0022C3F85022074A074B5B6943F467
:1018400000335361BFF34F8FBFF36F8F00BFBD46AF
:101850005DF8047B704700BF00ED00E080B48BB002
:1018600000AF264BD3F88030FB61FB695B0BC3F301
:101870000E037B62FB6903F007030433BB61FB6962
:10188000DB08C3F309037B617B69BB60BB68B3FA08
:1018900083F37B607B68DBB203F01F033B61BFF324
:1018A0004F8F7B693B623A6A3B6902FA03F3194640
:1018B0007A6ABB6902FA03F30B43FB600F4AFB68C9
:1018C000C2F860323B6A5A1E3A62002BEBD17B6A47
:1018D0005A1E7A62002BE4D1BFF34F8F074A074BA1
:1018E0005B6943F480335361BFF34F8FBFF36F8F56
:1018F00000BF2C37BD465DF8047B704700ED00E06B
:1019000080B582B000AF78607868034B984700BF1D
:101910000837BD4680BD00BF7925400080B500AFC7
:101920000A20084B98470B20064B98470C20054B84
:1019300098471020034B98471120024B984700BF4F
:1019400080BD00BF0119400080B48DB000AF786049
:1019500039607B68FB623B68BB62FB6A7B627B6AC7
:101960005A09FB6A3B623B6A03F01F03012101FA3B
:1019700003F3FA61BB61BB6A7B61FB693B613A6956
:10198000374B13445B02FB607B6903F00803002BB9
:1019900003D0FB68BA695A6602E0FB68BA691A6646
:1019A0007B6903F01003002B04D0FB68BA69C3F80D
:1019B000942003E0FB68BA69C3F890207B6903F0C8
:1019C0002003002B03D0FB68BA691A6502E0FB68AC
:1019D000BA695A657B6903F0C003002B03D0FB682A
:1019E000BA691A6202E0FB68BA695A627B6903F05D
:1019F0008003002B04D0FB68BA69C3F8842003E09D
:101A0000FB68BA69C3F880207B6903F00103002BEF
:101A100006D0FB681A6FBB691A43FB681A6706E0B9
:101A2000FB681A6FBB69DB431A40FB681A677B6966
:101A300003F00203002B06D0FB685A6FBB691A4300
:101A4000FB685A6706E0FB685A6FBB69DB431A40C4
:101A5000FB685A6700BF3437BD465DF8047B7047AA
:101A60000707200080B48DB000AF78600B46FB7094
:101A70007B68FB62FB7887F82B30FB6A7B627B6AB2
:101A80003B623B6A5B09FB61FA69174B13445B02DB
:101A9000BB6197F82B30012B09D1FB6A7B617B6915
:101AA00003F01F0301229A40BB691A610CE097F80A
:101AB0002B30002B08D1FB6A3B613B6903F01F030D
:101AC00001229A40BB695A61FB6AFB60FB6803F024
:101AD0001F0301229A40BB69C3F8A02000BF34371E
:101AE000BD465DF8047B70470707200080B48BB0CB
:101AF00000AF78600B46FB707B687B62FB7887F8F1
:101B000023307B6AFB61FB69BB61BB695B097B615D
:101B10007A69104B13445B023B6197F82330002B2A
:101B200009D07B6AFB60FB6803F01F0301229A4027
:101B30003B691A6308E07B6ABB60BB6803F01F0364
:101B400001229A403B695A6300BF2C37BD465DF8BD
:101B5000047B70470707200080B48DB000AF786029
:101B60000B46FB707B68FB62FB7887F82B30FB6AC7
:101B70007B627B6A5A09FB6A3B623B6A03F01F0384
:101B8000012101FA03F3FA61BB6197F82B30FB7571
:101B9000FB693B613A69234B13445B02FB60FB7DAD
:101BA000013B032B2ED801A252F823F0E11B400089
:101BB000F31B4000BD1B4000CF1B4000FB68BA690F
:101BC000C3F8C420FB68BA69C3F8D0201FE0FB68E3
:101BD000BA69C3F8C420FB68BA69C3F8D42016E018
:101BE000FB68BA69C3F8C020FB68BA69C3F8D020A3
:101BF0000DE0FB68BA69C3F8C020FB68BA69C3F896
:101C0000D42004E0FB68BA69C3F8B42003E0FB68A1
:101C1000BA69C3F8B02000BF3437BD465DF8047B15
:101C2000704700BF0707200080B400AFBFF34F8F9D
:101C3000BFF36F8F0C4A0C4BD3F8903223F00103A3
:101C4000C2F89032084A084BD3F8943223F00103CB
:101C5000C2F89432BFF34F8FBFF36F8F00BFBD4602
:101C60005DF8047B704700BF00ED00E080B500AF79
:101C7000134B4FF400425A60124B9847124B98474F
:101C8000124B134A5A60114B124A5A60124B984732
:101C9000124B984701214820114B984701214820B9
:101CA000104B984700210B200D4B984788210B20A3
:101CB0000D4B984702210B200C4B984700BF80BD6D
:101CC00050180E40251840005D184000000C0E40D2
:101CD0000C08005A0C07005A291C40001D1940002E
:101CE000651A4000ED1A400049194000591B400098
:101CF00080B485B000AFF860B9607A607B68002B73
:101D000003D0FB68BA685A6602E0FB68BA681A66D4
:101D100000BF1437BD465DF8047B704780B483B0C4
:101D200000AF786039607B683A681A6300BF0C378F
:101D3000BD465DF8047B704780B483B000AF786027
:101D400039607B683A685A6300BF0C37BD465DF85E
:101D5000047B704780B487B000AFF860B9607A60E8
:101D6000FB687A685A64BB68B3F1C05F4AD0B3F1CC
:101D7000C05F08D8B3F1006F16D0B3F1805F2CD0EC
:101D8000002B69D064E0B3F1205F65D0B3F1205F30
:101D900003D8B3F1005F4AD05AE0B3F1405F5BD0A3
:101DA000B3F1605F58D053E0FB681B6F7B61FB6849
:101DB0001A6F7B68D9437B690B401A40FB681A672E
:101DC000FB685B6F7B61FB685A6F7B68D9437B69FB
:101DD0000B401A40FB685A673AE0FB681B6F7B6157
:101DE0007A687B691A43FB681A67FB685B6F7B61E3
:101DF000FB685A6F7B68D9437B690B401A40FB68CC
:101E00005A6725E0FB681B6F7B61FB681A6F7B6874
:101E1000D9437B690B401A40FB681A67FB685B6F0C
:101E20007B617A687B691A43FB685A6710E0FB683C
:101E30001B6F7B617A687B691A43FB681A67FB68D2
:101E40005B6F7B617A687B691A43FB685A6700BFE6
:101E5000FB687A685A6000E000BF1C37BD465DF839
:101E6000047B704780B584B000AFF860B9607A60D9
:101E7000B968F868194B98477B6803F001031A4664
:101E8000B968F868164B98477B6803F00A03002B83
:101E900003D0FB68BA681A6202E0FB68BA685A624B
:101EA0007B6803F00203002B04D0FB68BA68C3F818
:101EB000802008E07B6803F00803002B03D0FB6858
:101EC000BA68C3F88420FB68BA685A61FB68BA68CC
:101ED0001A6000BF1037BD4680BD00BF9D20400086
:101EE000F11C400080B584B000AFF860B9607A6042
:101EF0003B60B968F868124B9847BA69B968F868E6
:101F0000104B98473B68002B03D0FB68BA681A65F2
:101F100002E0FB68BA685A657B68002B03D0FB6857
:101F2000BA681A6302E0FB68BA685A63FB68BA6869
:101F30001A61FB68BA681A6000BF1037BD4680BDE1
:101F40009D204000F11C400090B587B002AFF860C2
:101F5000B9607A603B60BB68B3F1005F16D0B3F143
:101F6000005F09D8B3F1805F10D0B3F1C05F0DD02E
:101F7000B3F1006F0AD03DE0B3F1405F1AD0B3F186
:101F8000605F17D0B3F1205F0ED033E07A68B96894
:101F9000F8681C4B98473B6803F001031A467968C0
:101FA000F868194B984727E03A687968F868174B42
:101FB000984721E0BB68B3F1605F0CBF01230023A9
:101FC000DBB21A463B6803F00403002B14BF012365
:101FD0000023DBB219463B6803F00103002B14BF5A
:101FE00001230023DBB200930B467968F868084CA4
:101FF000A04701E0002300E0012318461437BD4646
:1020000090BD00BF551D4000F11C4000651E400002
:10201000E51E400080B485B000AFF860B9607A601A
:102020007B6803F01003002B20D0FB68BA68C3F86C
:10203000B0207B6803F02003002B04D0FB68BA6853
:10204000C3F8D42003E0FB68BA68C3F8D0207B68EB
:1020500003F04003002B04D0FB68BA68C3F8C0202B
:1020600008E0FB68BA68C3F8C42003E0FB68BA68FC
:10207000C3F8B42000BF1437BD465DF8047B704739
:1020800080B483B000AF786039607B683A681A64C6
:1020900000BF0C37BD465DF8047B704780B483B049
:1020A00000AF786039607B683A685A6400BF0C37CB
:1020B000BD465DF8047B704780B483B000AF7860A4
:1020C0007B68DB6C18460C37BD465DF8047B7047B7
:1020D00080B483B000AF78607B689B6C18460C3787
:1020E000BD465DF8047B704780B584B000AF786072
:1020F00039607868264B9847F8607868254B984790
:102100000246FB681340FB60FB68002B3CD00023B9
:10211000BB6034E0204ABB681B0113441A683B686B
:102120009A4226D11C4ABB681B01134404331A6827
:10213000FB681340002B1CD0174ABB681B011344DB
:102140000C331B681449BA6812010A44106812491A
:10215000BA6812010A4404321268114698470E4ABE
:10216000BB681B01134404331B68DB43FA6813404C
:10217000FB60BB680133BB60BB68062B03D8FB6800
:10218000002BC7D100E000BF00BF1037BD4680BDA7
:10219000B9204000D12040008006402080B586B0A4
:1021A00000AFF860B9607A603B60214B1B68062B7A
:1021B00001D9012338E00023FB7511E0FB7D1B01F1
:1021C0001C4A13443B613B691A68BB689A4204D1BC
:1021D0003B695A687B689A4208D0FB7D0133FB75E6
:1021E000FA7D134B1B689A42E8D900E000BF3B69B7
:1021F000BA681A603B697A685A603B693A689A60C3
:102200003B693A6ADA60FA7D094B1B6801339A42EE
:1022100004D1074B1B680133054A13603A6879689B
:10222000F868054B9847002318461837BD4680BD0F
:10223000F0064020800640201520400080B500AF09
:102240000A210248024B984700BF80BD000E0E4095
:10225000E920400080B500AF0B210248024B9847AF
:1022600000BF80BD00100E40E920400080B500AFE7
:102270000C210248024B984700BF80BD00120E405F
:10228000E920400080B500AF10210248024B98477A
:1022900000BF80BD00140E40E920400080B500AFB3
:1022A00011210248024B984700BF80BD00160E4026
:1022B000E920400080B483B000AF78607B68013BC8
:1022C000032B1AD801A252F823F000BFDD224000F0
:1022D000E3224000EB224000F322400000237B6019
:1022E0000EE04FF480737B600AE04FF440737B6034
:1022F00006E04FF400737B6002E000237B6000BFC8
:102300000A490A4B1B6B23F440727B6813430B632F
:1023100000BF064B9B6E03F00803002BF9D000BFF3
:102320000C37BD465DF8047B704700BF00060E40C9
:1023300080B485B000AF78601D491D4B1B6B23F046
:1023400070027B6813430B634FF48053FB6007E01C
:10235000FB68002B01D1012323E0FB68013BFB60FC
:10236000134B9B6E03F00803002BF1D0104A104B67
:102370001B6B23F0030343F0020313634FF48053FA
:10238000FB6007E0FB68002B01D1012309E0FB683B
:10239000013BFB60064B9B6E03F00803002BF1D062
:1023A000002318461437BD465DF8047B704700BF14
:1023B00000060E4080B483B000AF78607B68012BCC
:1023C00005D10749064B9A68064B13438B60044BB3
:1023D000054A1A6000BF0C37BD465DF8047B7047A4
:1023E00010180E40000010A5080000A580B400AF32
:1023F000094B5B6903F08003002B07D0074B9B6EF2
:1024000003F08003002B01D0012300E000231846D5
:10241000BD465DF8047B704710180E4000060E4064
:1024200080B483B000AF78601549154B1A6A154B1C
:1024300013430B6200BF124B9B6E03F40033002B5F
:10244000F9D00F490E4B1A6A0F4B13407A681343A9
:1024500043F45C130B6200BF094B9B6E03F4003323
:10246000002BF9D00649064B1A6A084B134043F477
:102470005C130B6200BF0C37BD465DF8047B7047F0
:1024800000060E40080037008FFFC8FFFFFFC8FEA0
:1024900080B483B000AF786039607B68002B08D0CF
:1024A0001349134B1B6A134A1A40134B13430B6215
:1024B00018E00F490E4B1A6A104B13403A6812028B
:1024C00092B21A430E4B13430B6200BF084B9B6E34
:1024D00003F00103002BF9D00549054B1A6A094B9B
:1024E00013430B6200BF0C37BD465DF8047B704799
:1024F00000060E40FCFFC8FE02003701FCFFC8FFCB
:10250000010037000000370180B400AF044B9B6E20
:1025100003F480331846BD465DF8047B704700BF66
:1025200000060E4080B400AF044B4FF000529A6298
:1025300000BFBD465DF8047B704700BF00060E403B
:1025400080B400AF044B9B6E03F002031846BD46F7
:102550005DF8047B704700BF00060E4080B400AFFA
:10256000044B9B6E03F040031846BD465DF8047BA8
:10257000704700BF00060E4080B483B000AF7860A3
:102580007B683F2B01D901232FE07B681F2B13D8D9
:10259000194B9A6901217B6801FA03F31A40012162
:1025A0007B6801FA03F39A421ED0134A01217B682B
:1025B00001FA03F3136117E07B68203B7B600E4B4D
:1025C000D3F8082101217B6801FA03F31A400121A5
:1025D0007B6801FA03F39A4206D0074A01217B681F
:1025E00001FA03F3C2F80031002318460C37BD4648
:1025F0005DF8047B704700BF00060E4080B483B0D6
:1026000000AFEFF310837B607B68002B0CBF0123CE
:102610000023DBB23B6072B6BFF35F8F044B002236
:102620001A703B6818460C37BD465DF8047B70474E
:102630001800402080B483B000AF78607B68002B26
:1026400014BF01230023DBB218460C37BD465DF8EA
:10265000047B704780B582B000AF78607868074B24
:1026600098470346002B05D0054B01221A70BFF393
:102670005F8F62B600BF0837BD4680BD352640007B
:102680001800402080B584B000AF1E4BFB601E4B8D
:10269000BB60FA68BB689A420CD007E0BB681A1DA1
:1026A000BA60FA68111DF96012681A60BB68174AAF
:1026B0009342F3D3164BBB6004E0BB681A1DBA60AB
:1026C00000221A60BB68134A9342F6D3124BFB6098
:1026D000124AFB6823F07F039360114B98477860A0
:1026E000104A104B1B6843F470031360BFF34F8F05
:1026F000BFF36F8F78680C4B98470C4B98470C4B87
:102700009847FEE79C414000000040205C044020C8
:102710005C044020240740200000400000ED00E061
:10272000FD25400088ED00E0552640008532400040
:102730002D2E400080B400AFFEE7000080B400AF53
:10274000524B1B6B03F00303012B14D0012B02D35C
:10275000022B38D07AE04E4B5B6903F08003002BEC
:1027600004D04C4B4FF400421A606FE0494B4FF4D9
:10277000FA421A606AE0454B1B6A03F08073002B33
:1027800003D0444B444A1A6060E0424B434A1A600B
:102790003E4B1B6A03F07003102B04D0202B08D093
:1027A000002B0ED00EE03B4B1B685B00394A1360D8
:1027B00008E0384B1A6813465B001344354A13602F
:1027C00000E000BF42E0314B1B6A03F08073002B36
:1027D00003D0304B304A1A601CE02E4B2F4A1A604F
:1027E0002A4B1B6A03F07003102B04D0202B08D057
:1027F000002B0ED00EE0274B1B685B00254A1360B0
:1028000008E0244B1A6813465B001344214A136006
:1028100000E000BF1D4B1B6B03F00303022B14D120
:102820001A4B9B6A1B0CC3F30A030133194A126843
:1028300002FB03F3174A1360144B9B6ADBB2154A81
:102840001268B2FBF3F3134A136000BF0F4B1B6B0C
:1028500003F07003702B08D10E4B1B68104AA2FBCB
:1028600003235B080B4A13600AE0084B1B6B1B0930
:1028700003F00703074A126822FA03F3054A1360BC
:1028800000BFBD465DF8047B704700BF00060E40E8
:1028900010180E401C004020001BB70000093D002E
:1028A000ABAAAAAA80B483B000AF78607B681D4A47
:1028B000934204D81C4B4FF080621A602BE07B6877
:1028C0001A4A934203D8184B194A1A6023E07B68CE
:1028D000184A934203D8144B174A1A601BE07B68CE
:1028E000164A934203D8104B154A1A6013E07B68CE
:1028F000144A934204D80C4B4FF004221A600AE0A9
:102900007B68114A934203D8074B104A1A6002E0D1
:10291000054B0F4A1A6000BF0C37BD465DF8047BBB
:10292000704700BFBFF35E01000C0E407FE7BD02A1
:10293000000100043FDB1C0400020004FFCE7B0505
:1029400000030004BFC2DA067FB6390800050004A0
:102950000006000480B483B000AF0346FB71094950
:1029600097F907305B09FA7902F01F02012000FA9B
:1029700002F241F8232000BF0C37BD465DF8047B0E
:10298000704700BF00E100E080B483B000AF0346B1
:10299000FB71094997F907305B09FA7902F01F02C8
:1029A000012000FA02F2203341F8232000BF0C3747
:1029B000BD465DF8047B704700E100E080B483B061
:1029C00000AF0346FB71094997F907305B09FA79B3
:1029D00002F01F02012000FA02F2603341F82320C6
:1029E00000BF0C37BD465DF8047B704700E100E096
:1029F00080B483B000AF03463960FB7197F90730AC
:102A0000002B0BDA0D49FB7903F00F03043B3A6806
:102A1000D2B25201D2B20B441A7609E0084997F9B2
:102A200007303A68D2B25201D2B20B4483F8002385
:102A300000BF0C37BD465DF8047B704700ED00E039
:102A400000E100E080B584B000AF03463960FB8050
:102A500000211848184B9847FB8819461548174B12
:102A600098471448164B9847F86000BF1148144B1C
:102A700098470246FB689A42F8D03A68FB681344CC
:102A800019460C480F4B984703200F4B98470320DB
:102A90000E4B9847042103200D4B984703200D4B04
:102AA00098474FF4403103480B4B984700BF10370D
:102AB000BD4680BD30180E40DD014000AD01400034
:102AC000AD024000F502400089294000BD294000C8
:102AD000F1294000552940003502400090B583B0EF
:102AE00000AF1448144B984778607B6803F00103EB
:102AF000002B1AD0114B00221A70114B002200211A
:102B00001048114CA047114B1B78DBB2002B06D0AC
:102B10000B4B002200210E480B4CA04705E0084B50
:102B2000002200210B48084CA04700BF0C37BD46CF
:102B300090BD00BF30180E40DB024000FC06402074
:102B40000C00402024414000F1094000F4064020E0
:102B5000344140004441400098B500AF1F4B1B7802
:102B6000DBB2002B1BD11E4B1B78DBB2002B16D126
:102B70001C4B1B681C4A3121D1541A4B1B68DBB219
:102B80001A4692001344D9B2184B10221848194C17
:102B9000A047144B1B680133124A13601CE00F4B13
:102BA0001B78DBB2002B17D10D4B1B78DBB2002B4F
:102BB00012D00B4B00221A7001210F480F4B98477F
:102BC0004FF080410E480D4B984704210D480B4BA8
:102BD00098470D4B01221A7000BF98BDFC0640209B
:102BE000F4064020F8064020240040200C0040203D
:102BF00054414000F1094000000E0E40391D4000D4
:102C000000120E4000100E402000402098B500AF8A
:102C1000104B1B78DBB2002B1AD10F4B1B78DBB2A9
:102C2000002B15D10D4B1B680D4A3221D1540B4B93
:102C30001B68DBB21A4692001344D9B2094B10222A
:102C400009480A4CA047054B1B680133034A13602F
:102C500000BF98BDFC064020F4064020F806402046
:102C6000240040200C00402054414000F109400065
:102C700098B500AF104B1B78DBB2002B1AD10F4B6D
:102C80001B78DBB2002B15D10D4B1B680D4A33218D
:102C9000D1540B4B1B68DBB21A4692001344D9B2D5
:102CA000094B102209480A4CA047054B1B68013309
:102CB000034A136000BF98BDFC064020F406402084
:102CC000F8064020240040200C00402054414000E1
:102CD000F109400090B583B002AF0A20454B9847F8
:102CE0000C20444B98470B20424B98471020414BF7
:102CF00098470C203F4B98470A203E4B98470023AB
:102D000001224FF040513C483C4CA04700234FF07B
:102D100080424FF040513A48384CA04700230422EB
:102D20004FF040513748354CA04709234FF08052AF
:102D30004FF020513448314CA04709234FF0004256
:102D40004FF020512E482D4CA04709234FF400226C
:102D50004FF020512848294CA0472C4B009370235A
:102D60004FF0805210212848294CA047294B00934E
:102D700070234FF000420C212148254CA047264BE0
:102D8000009370234FF400220A211B48204CA047D7
:102D90004FF080511C48214B98474FF00041184894
:102DA0001E4B98474FF4002113481C4B9847164878
:102DB0001B4B984712481A4B98470F48184B984797
:102DC0001020184B984704211020174B98470C20CF
:102DD000144B984704210C20134B98470A20114BA1
:102DE000984704210A20104B984700BF0437BD467E
:102DF00090BD00BF79254000000E0E40491F4000E5
:102E000000120E4000100E4000140E40592B4000DE
:102E10009D2140000D2C4000712C4000812040007D
:102E2000B920400055294000F129400090B583B0F9
:102E300000AF394B9847394B9847394B4FF4004214
:102E40005A60384B9847384B9847384B1B78DBB261
:102E5000002BFAD1364B1B78DBB2002B1AD0354B46
:102E6000002200213448354CA047354B1B78DBB29B
:102E7000002B06D02F4B0022002132482F4CA047B8
:102E800005E02C4B002200212F482C4CA047284B5A
:102E900000221A702D4B1B68032BD6DD2C492D48C0
:102EA0002D4B98470346002B13D1254B01221A7056
:102EB00001212A482A4B98474FF080412948284B46
:102EC000984704212848264B9847194B01221A702D
:102ED00018E0164B01221A70164B002200211648EA
:102EE000164CA047134B002200212048134CA0474A
:102EF0004FF40053FB8010233B60FB883968184671
:102F00001B4B9847114B00221A600A4B10220021DC
:102F100009480A4CA04798E76D1C4000A9174000DB
:102F200050180E40D52C4000F50A4000FC06402009
:102F3000200040200C00402024414000F1094000C6
:102F4000F40640203441400044414000F80640204F
:102F50005841400024004020E9324000000E0E405D
:102F60001D1D400000120E4000100E406041400048
:102F7000452A400053B94AB9002908BF00281CBFA0
:102F80004FF0FF314FF0FF3000F07AB9ADF1080C8F
:102F90006DE904CE00F006F8DDF804E0DDE9022377
:102FA00004B070472DE9F0478C460D460446089E54
:102FB000002B51D18A4217466DD9B2FA82FEBEF17A
:102FC000000F0BD0CEF1200C01FA0EF520FA0CFC0C
:102FD00002FA0EF74CEA050C00FA0EF44FEA174A13
:102FE000250CBCFBFAF81FFA87F90AFB18CC45EA56
:102FF0000C4508FB09F3AB420AD9ED1908F1FF3281
:1030000080F02381AB4240F22081A8F102083D44C8
:10301000ED1AA4B2B5FBFAF00AFB105544EA0544D8
:1030200000FB09F9A14509D9E41900F1FF3380F04B
:103030000A81A14540F2078102383C44A4EB09040F
:1030400040EA08400021002E61D024FA0EF400234B
:1030500034607360BDE8F0878B4207D9002E54D0EE
:10306000002186E821000846BDE8F087B3FA83F125
:10307000002940F08E80AB4202D3824200F2FA80F7
:10308000841A65EB03050120AC46002E3FD086E88C
:103090001010BDE8F08712B90127B7FBF2F7B7FAB5
:1030A00087FEBEF1000F34D1EB1B3A0C1FFA87FCF0
:1030B0000121B3FBF2F8250C02FB183345EA034566
:1030C0000CFB08F3AB4207D9ED1908F1FF3002D22F
:1030D000AB4200F2D1808046ED1AA3B2B5FBF2F00C
:1030E00002FB105543EA05440CFB00FCA44507D93C
:1030F000E41900F1FF3302D2A44500F2B88018466B
:10310000A4EB0C0440EA08409DE731463046BDE898
:10311000F087CEF1200405FA0EF307FA0EF720FA35
:1031200004F83A0C25FA04F448EA0308B4FBF2F177
:103130004FEA184502FB11441FFA87FC45EA044593
:1031400001FB0CF3AB4200FA0EF409D9ED1901F1C1
:10315000FF3080F08A80AB4240F2878002393D44E4
:10316000EB1A1FFA88F5B3FBF2F002FB103345EAC5
:10317000034500FB0CF3AB4207D9ED1900F1FF3812
:103180006FD2AB426DD902383D44EB1A40EA01419F
:103190008FE7C1F1200722FA07F88B4005FA01F406
:1031A00048EA030320FA07FE4FEA134CFD404EEABB
:1031B000040EB5FBFCF94FEA1E440CFB19551FFA2F
:1031C00083F844EA054509FB08F4AC4202FA01F22F
:1031D00000FA01FA08D9ED1809F1FF3043D2AC42E8
:1031E00041D9A9F102091D442D1B1FFA8EFEB5FB22
:1031F000FCF00CFB10554EEA054400FB08F8A04516
:1032000007D9E41800F1FF3529D2A04527D90238A3
:103210001C4440EA0940A4EB0804A0FB02894C4589
:10322000C6464D4615D312D056B1BAEB0E0364EB29
:10323000050404FA07F7CB401F43CC4037607460A5
:103240000021BDE8F0871846F8E69046E0E6C24562
:10325000EAD2B8EB020E69EB03050138E4E7284631
:10326000D7E7404691E78146BEE7014678E7023856
:103270003C4445E7084608E7A8F102083D442BE72F
:10328000704700BF70B50F4E0F4D761BB61018BFBC
:10329000002405D0013455F8043B9847A642F9D1E3
:1032A0000A4E0B4D761B00F063FFB61018BF0024CA
:1032B00006D0013455F8043B9847A642F9D170BDB9
:1032C00070BD00BF7C4140007C4140008441400013
:1032D0007C414000000000000000000000000000F1
:1032E000A2EB0300704700BF02780B78012A28BFC9
:1032F0009A42F5D16DE9044540EA0104CDE902673F
:103300006FF0000C4FEA447212B380EA010414F02B
:10331000070F6AD100F0070420F0070004F003054E
:1033200021F007014FEAC505F0E8042314F0040F6B
:10333000F1E804670CFA05F462EA040266EA04069E
:103340000AD063EA0403624667EA0407664603E0BC
:10335000F0E80423F1E8046782FA4CF582EA0604F7
:10336000A4FA8CF46CBB83FA4CF583EA0705A5FA42
:103370008CF595B950E9022351E9026782FA4CF5C0
:1033800082EA0604A4FA8CF483FA4CF583EA070572
:10339000A5FA8CF52543DBD09CB92DBAB5FA85F496
:1033A00024F0070427FA04F1DDE9026723FA04F3A5
:1033B00003F0FF0001F0FF01FDE80445A0EB010070
:1033C000704724BAB4FA84F424F0070426FA04F10E
:1033D000DDE9026722FA04F202F0FF0001F0FF01CA
:1033E000FDE80445A0EB0100704714F0030F3CD149
:1033F00010F0030428D150F8082B51F8083B82FA4A
:103400004CF582EA0305A5FA8CF55DB950F8042C59
:1034100051F8043C82FA4CF582EA0305A5FA8CF5D2
:10342000002DE8D02DBAB5FA85F424F0070423FA6C
:1034300004F122FA04F202F0FF0001F0FF01FDE8BE
:103440000445A0EB010070474FEAC40420F00300DC
:1034500050F8082B21F0030151F8083B0CFA04F452
:1034600062EA040263EA0403C9E710F003041AD015
:10347000A1EB040120F00300E40750F8042B06D070
:103480000FD28B785FFAA2F4E41A06D12BB1CB7875
:103490005FFAB2F4E41A00D11BB920465DF8104B74
:1034A000704701F1040150F8042BCC0721F003010F
:1034B00051F8043B48D824D222F07F4482FA4CF5DC
:1034C00094EA1325A5FA8CF50AD165B951F8043BA5
:1034D00084EA0204B4EB036F0ED150F8042BEBE73F
:1034E0004FEA132355E035F07F454DD10878FDE8CC
:1034F0000445C0F1000070474FEA126203F0FF0379
:1035000047E002EA1C4482FA4CF594EA1345A5FA16
:103510008CF50AD165B951F8043B84EA0204B4EB96
:10352000034F0CD150F8042BEBE74FEA134330E084
:1035300015EA1C4528D10B884FEA124229E04FEAD0
:10354000124203EA1C4324E002F0FF0482FA4CF525
:1035500094EA1365A5FA8CF50AD165B951F8043BD4
:1035600084EA0204B4EB032F09D150F8042BEBE7F3
:103570004FEA13630DE015F0FF0F05D10B684FEA1A
:10358000122223F07F4304E04FF00000FDE80445E1
:10359000704712BA1BBA82FA4CF482EA0304A4FA06
:1035A0008CF5B5FA85F402FA04F203FA04F34FEA53
:1035B0001260FDE80445A0EB13607047024B13B1A5
:1035C000024800F005B8704700000000DD354000FB
:1035D000002301461A46184600F01EB838B50A4CBA
:1035E0000A4D641BA4100AD004F18043013B05EB93
:1035F0008305013C55F804399847002CF9D1BDE802
:10360000384000F0BFBD00BF9441400090414000F1
:10361000704700BF704700BF2DE9F8432C4D0646A8
:10362000286898460F469146FFF7F2FF294B1C6821
:10363000D4F84831002B3ED05A681F2A1CDC02F116
:10364000010E76B103EB82010124C1F88890D3F812
:10365000880194402043022EC3F88801C1F80881F4
:1036600023D00232C3F804E0286843F82270FFF741
:10367000D1FF0020BDE8F883174B0BB34FF4C8709F
:10368000AFF300800346D8B1D4F84821026000218E
:1036900041600A46C4F848014FF0010EC0F8881195
:1036A000C0F88C11002EDCD0CCE7D3F88C110C4381
:1036B000C3F88C41D5E704F5A673C4F84831BBE7DD
:1036C0002868FFF7A7FF4FF0FF30BDE8F88300BF81
:1036D000580440206C414000000000000000000041
:1036E00000000000000000000000000000000000DA
:1036F000000000000000000000000000300030006A
:103700003000300030003000000030003000000099
:1037100000000000000000006C006C006C006C00F9
:103720000000000000000000000000000000000099
:10373000000000000000280028007C00280028006D
:103740007C002800280000000000000000000000AD
:1037500010003C0040002000100008000400780029
:1037600010000000000000000000000000007C00CD
:10377000A400A80050002800540094008800000015
:103780000000000000000000600090009000900029
:1037900060009400880088007000000000000000B5
:1037A00000000000100010001000000000000000E9
:1037B0000000000000000000000000000000000009
:1037C0000800100020002000200020002000200021
:1037D00010000800000000000000000020001000A1
:1037E0000800080008000800080008001000200079
:1037F000000000000000280010007C0010002800DD
:1038000000000000000000000000000000000000B8
:103810000000000000000000100010001000FE007A
:103820001000100010000000000000000000000068
:103830000000000000000000000000000000000088
:103840001000300020000000000000000000000018
:103850000000000000007C000000000000000000EC
:103860000000000000000000000000000000000058
:1038700000000000000030003000000000000000E8
:1038800000000000000008000800100010002000E8
:103890002000400040000000000000000000000088
:1038A0000000780084008C009400A400C400840010
:1038B0007800000000000000000000000000100080
:1038C0003000500010001000100010007C000000BC
:1038D00000000000000000000000700088000800E8
:1038E0001000200040008000F800000000000000F0
:1038F0000000000000007000880008003000080090
:1039000008008800700000000000000000000000B7
:10391000000008001800280048008800FC0008008B
:103920000800000000000000000000000000780017
:1039300080008000F000080008000800F00000008F
:103940000000000000000000000030004000800087
:10395000F00088008800880070000000000000006F
:10396000000000000000F800080010001000200017
:1039700020004000400000000000000000000000A7
:1039800000007000880088007000880088008800AF
:103990007000000000000000000000000000700047
:1039A000880088008800780008001000600000008F
:1039B00000000000000000000000000000003000D7
:1039C0003000000000003000300000000000000067
:1039D0000000000000000000000030003000000087
:1039E00000003000300060004000000000000000D7
:1039F000000000000800100020004000200010001F
:103A000008000000000000000000000000000000AE
:103A1000000000007C0000007C00000000000000AE
:103A20000000000000000000000000004000200036
:103A300010000800100020004000000000000000FE
:103A400000000000000030004800080010002000C6
:103A50000000000020000000000000000000000046
:103A6000000000003C0042009A00AA00AA00BE002C
:103A7000800078000000000000000000000010003E
:103A80002800280044007C0044004400440000005A
:103A900000000000000000000000F8008400840026
:103AA000F800840084008400F8000000000000009A
:103AB0000000000000003C0040008000800080000A
:103AC000800040003C0000000000000000000000FA
:103AD0000000F000880084008400840084008800D6
:103AE000F000000000000000000000000000F800EE
:103AF00080008000F000800080008000F80000005E
:103B000000000000000000000000F80080008000BD
:103B1000F8008000800080008000000000000000AD
:103B20000000000000003C004000800080009C007D
:103B30008400440038000000000000000000000085
:103B40000000880088008800F8008800880088004D
:103B50008800000000000000000000000000F800E5
:103B6000200020002000200020002000F80000009D
:103B700000000000000000000000F800080008003D
:103B80000800080008000800F00000000000000025
:103B9000000000000000840088009000A000D00019
:103BA0008800840084000000000000000000000085
:103BB0000000800080008000800080008000800085
:103BC000FC00000000000000000000000000840075
:103BD000CC00CC00B400B400840084008400000059
:103BE000000000000000000000008400C400C400C9
:103BF000A400A400940094008C00000000000000C9
:103C0000000000000000780084008400840084002C
:103C10008400840078000000000000000000000024
:103C20000000F800840084008400F8008000800018
:103C3000800000000000000000000000000078008C
:103C400084008400840084008400840078002000C4
:103C500018000000000000000000F800840084004C
:103C60008400F80088008400840000000000000048
:103C70000000000000007C00800080006000180050
:103C800004000400F8000000000000000000000034
:103C90000000F8002000200020002000200020006C
:103CA0002000000000000000000000000000840070
:103CB0008400840084008400840084007800000074
:103CC0000000000000000000000084008400840068
:103CD00048004800480030003000000000000000AC
:103CE0000000000000008800A800A800A800A800AC
:103CF000A80050005000000000000000000000007C
:103D0000000088008800500020002000500088003B
:103D10008800000000000000000000000000880093
:103D20008800880050005000200020002000000083
:103D300000000000000000000000FC00040008007B
:103D40001000200040008000FC0000000000000087
:103D500000000000700040004000400040004000B3
:103D600040004000400040007000000000000000E3
:103D70004000400020002000200010001000100033
:103D800008000800000000000000000038000800E3
:103D900008000800080008000800080008000800E3
:103DA000380000000000000010002800440000005F
:103DB0000000000000000000000000000000000003
:103DC00000000000000000000000000000000000F3
:103DD00000000000380000000000000000000000AB
:103DE00000002000100000000000000000000000A3
:103DF00000000000000000000000000000000000C3
:103E00000000700008000800780088007C000000B6
:103E10000000000000000000800080008000F8002A
:103E20008400840084008400F8000000000000008A
:103E3000000000000000000000007800800080000A
:103E400080008000780000000000000000000000FA
:103E50000400040004007C008400840084008C00C2
:103E600074000000000000000000000000000000DE
:103E7000000078008400FC00800080007C000000CE
:103E800000000000000000001C0020002000FC00DA
:103E90002000200020002000FC00000000000000A6
:103EA000000000000000000000007C00840084008E
:103EB000840084007C000400780000000000000002
:103EC000800080008000B800C4008400840084006A
:103ED000840000000000000000000000000010004E
:103EE0000000700010001000100010007C000000A6
:103EF0000000000000000000000008000000780042
:103F00000800080008000800080008000800700009
:103F10000000000080008000800088009000A00069
:103F2000D0008800880000000000000000000000B1
:103F3000E0002000200020002000200020002000C1
:103F4000F800000000000000000000000000000079
:103F50000000A400FC00A400A400A400A400000031
:103F60000000000000000000000000000000B80099
:103F7000C40084008400840084000000000000006D
:103F800000000000000000000000780084008400B1
:103F900084008400780000000000000000000000A1
:103FA000000000000000B800C40084008400840009
:103FB000F800800080000000000000000000000009
:103FC00000007C0084008400840084007C000400E5
:103FD0000400000000000000000000000000D80005
:103FE0006000400040004000F000000000000000C1
:103FF0000000000000000000000078008000400089
:1040000030000800F0000000000000000000000088
:10401000000000002000FC00200020002000200004
:104020001C00000000000000000000000000000074
:104030000000880088008800880088007C0000005C
:1040400000000000000000000000000000008400EC
:104050008400840048004800300000000000000098
:10406000000000000000000000008800A800A80078
:10407000A800A800500000000000000000000000A0
:1040800000000000000088005000200020005000C8
:104090008800000000000000000000000000000098
:1040A0000000840084004800480030001000200018
:1040B0004000000000000000000000000000F800C8
:1040C0000800100020004000F80000000000000080
:1040D0000000000010002000200010002000200040
:1040E0001000200020001000000000000000000070
:1040F0001000100010001000000000001000100060
:10410000100010000000000000000000200010005F
:1041100010002000100010002000100010002000EF
:10412000000000002020202020202020202020200F
:1041300020000000436F6672652061626572746FD3
:1041400000000000436F6672652066656368616405
:104150006F0000002A0000003131323300000000FF
:10416000426C6F71756561646F0000003000402023
:10417000F8B500BFF8BC08BC9E467047BD3540008E
:1041800065014000F8B500BFF8BC08BC9E4670470A
:0441900041014000A9
:0841940010EEFF7F01000000A6
:10419C00BFF35F8F0138FBD17047000000000000B7
:1041AC00DC3640000A0E207D0100000000093D00B5
:1041BC000100000030303030000000000000000032
:1041CC00000000001C03402084034020EC0340202E
:1041DC0000000000000000000000000000000000D3
:1041EC0000000000000000000000000000000000C3
:1041FC0000000000000000000000000000000000B3
:10420C0000000000000000000000000000000000A2
:10421C000000000000000000000000000000000092
:10422C000000000000000000000000000000000082
:10423C000000000000000000000000000000000072
:10424C000000000000000000000000000000000062
:10425C000000000000000000000000000000000052
:10426C000000000000000000010000000000000041
:10427C000E33CDAB34126DE6ECDE05000B00000006
:10428C000000000000000000000000000000000022
:10429C000000000000000000000000000000000012
:1042AC000000000000000000000000000000000002
:1042BC0000000000000000000000000000000000F2
:0C45EC000000000000000000000740205C
:04000005004026850C
:00000001FF
